:100000000C9446000C9465000C9465000C946500FB
:100010000C9465000C9465000C9465000C946500CC
:100020000C9465000C9465000C9465000C946500BC
:100030000C9465000C940C010C9465000C94650004
:100040000C9465000C9465000C9465000C9465009C
:100050000C9465000C9465000C9465000C9465008C
:100060000C9465000C9465000C9465000C9465007C
:100070000C9465000C9465000C9465000C9465006C
:100080000C9465000C9465000C94650011241FBE4F
:10009000CFEFD0E4DEBFCDBF11E0A0E0B1E0E2EFF2
:1000A000F4E000E00BBF02C007900D92A231B1074F
:1000B000D9F721E0A2E1B1E001C01D92A032B20760
:1000C000E1F70E9454020C9477020C940000CF9345
:1000D000DF9300D01F92CDB7DEB789837B836A831D
:1000E00089818A3031F48A819B81BC018DE00E9434
:1000F000670080EC90E0FC018081882F90E08072A6
:100100009927892BB1F386EC90E02981FC012083AB
:1001100080E090E00F900F900F90DF91CF910895C5
:10012000CF93DF9300D000D0CDB7DEB769837A8359
:100130008B839C8389819A81AB81BC8180930E01E2
:1001400090930F01A0931001B093110180910E01C3
:1001500090910F01A0911001B091110180931301B2
:1001600090931401A0931501B093160100000F9015
:100170000F900F900F90DF91CF910895CF93DF9361
:10018000CDB7DEB781E890E02BE0FC01208388E862
:1001900090E02DE730E0FC01318320838FE690E092
:1001A00022E0FC01208384E890E0FC0111821082AF
:1001B00080910E0190910F01A0911001B091110159
:1001C0008093130190931401A0931501B09316012D
:1001D0008FE590E02FE530E0F90120812068FC01F7
:1001E00020830000DF91CF910895CF93DF93CDB7A7
:1001F000DEB781E890E0FC0110820000DF91CF9132
:100200000895CF93DF93CDB7DEB781E080931201DD
:100210000000DF91CF9108951F920F9200905F0030
:100220000F92112400905B000F922F933F934F93F6
:100230005F936F937F938F939F93AF93BF93EF934E
:10024000FF93CF93DF93CDB7DEB7809113019091E9
:100250001401A0911501B09116010197A109B109EE
:100260008093130190931401A0931501B09316018C
:100270008091130190911401A0911501B091160184
:10028000892B8A2B8B2B91F40E94010180910E0106
:1002900090910F01A0911001B09111018093130171
:1002A00090931401A0931501B09316010000DF9103
:1002B000CF91FF91EF91BF91AF919F918F917F91DE
:1002C0006F915F914F913F912F910F9000925B0042
:1002D0000F9000925F000F901F901895CF93DF93BF
:1002E0001F92CDB7DEB789838981883779F48CE78F
:1002F00090E020ECFC01208388E790E0FC01808105
:100300009181909318018093170111C089818937D9
:1003100071F48CE790E021ECFC01208388E790E009
:10032000FC018081918190931F0180931E01000048
:100330000F90DF91CF910895CF93DF93CDB7DEB7C4
:1003400080911B0190911C01009719F0019741F0D9
:100350000EC081E090E090931C0180931B0107C0C8
:1003600081E090E090931C0180931B01000080913C
:100370001B0190911C01009719F0019721F04FC0CB
:1003800010921D014CC010921D0180911701909197
:100390001801813D9140C0F08091170190911801A2
:1003A0008033924088F480911E0190911F01813D1D
:1003B000914050F080911E0190911F018033924036
:1003C00018F410921D012AC0809117019091180114
:1003D000813D914020F481E080931D010AC080910D
:1003E0001701909118018033924018F081E08093BA
:1003F0001D0180911E0190911F01813D914020F4CB
:1004000081E080931D010AC080911E0190911F011F
:100410008033924018F081E080931D0100000000BD
:10042000DF91CF910895CF93DF93CDB7DEB7809161
:10043000190190911A01009719F0019741F00EC02F
:1004400081E090E090931A018093190107C081E048
:1004500090E090931A018093190100008091190196
:1004600090911A01009751F0019709F008C085E2B8
:1004700090E020911D01FC01208301C000000000DC
:10048000DF91CF910895CF93DF93CDB7DEB78AE7A1
:1004900090E02AE730E0F9012081206EFC01208302
:1004A0000000DF91CF910895CF93DF93CDB7DEB7F2
:1004B00081E290E0FC01108282E290E02FEFFC01EB
:1004C000208384E290E02FEFFC01208385E290E01E
:1004D000FC0110820E94430288E70E946E0189E7B6
:1004E0000E946E010E949C010E941302F5CFF894B5
:0204F000FFCF3C
:1004F2000000000200000000670000000000010090
:020502000000F7
:00000001FF
